:020000040000fa
:080000000002040000000000f2
:020000040000fa
:04000c00ea0c0000fa
:020000040000fa
:04001000000d0000df
:020000040000fa
:04001400160d0000c5
:020000040000fa
:040018002c0d0000ab
:020000040000fa
:04003400620c00005a
:020000040000fa
:04004800940e000012
:020000040000fa
:04005c000e0c000086
:020000040000fa
:04020c00420d00009f
:020000040000fa
:04021000580d000085
:020000040000fa
:040214006e0d00006b
:020000040000fa
:04021800840d000051
:020000040000fa
:100400008f8620000e7f22000e0188000000000071
:10041000000020000000e000020032000001200087
:100420002002880014000700770007000000e000a9
:1004300003003a00001221000100200002003700f2
:100440000000200001002000810f70000100320038
:1004500014000700000020000000e000020032004d
:10046000000002000000000070090200000000000f
:100470000040da000000fe004440a90020002000f7
:100480000000e0000300320010002000900188000e
:100490004440a800000006008a1f78008b1f7800e7
:1004a00000000600a1028800800478000000eb0034
:1004b0001f003700e284440054a0b4009905ba003c
:1004c000e284440054a0b4009906ba00e2844400d7
:1004d00054a0b4000006eb00476fde00fd07b20039
:1004e000ae018800636ce10003003a00eaff0700f8
:1004f0000000eb000e003700606ce10008003a00dd
:10050000004deb000a05e800020039003420ec0041
:100510000af0a0008b05e900f9ff3e000400370057
:100520006168e100010032000086eb000b0007006b
:1005300019c7ba001905ba000e04e00003003a001a
:100540000a00e000dbff3a0000000600fe07b200f0
:10055000ae0288008a047800f5ff37000cd0a300b3
:10056000e20f4d001c00390089027800354dba00b9
:100570000a05e800020039003420ec000af0a0006f
:100580008b05e9000f003200254dba000a05e8008e
:10059000020039003420ec000af0a0008b05e900cd
:1005a000080032000c00e0000600320015cdba0051
:1005b0000a05e800020039003420ec000af0a0002f
:1005c0008b05e9008984e80054a0b4000b00e0002a
:1005d000e2ff3a00000006009902ba00055d7800cb
:1005e0008b05e900f7ff3200c82ade00055d7800c0
:1005f0008b05e900f3ff32000c00e000f1ff320050
:1006000019ddba00eeff3700000005008001780018
:1006100002003700815978000201e9000200e00081
:08062000fcff3a000000060097
:020000040000fa
:100628000000fa00889fbe008a9fbe008c9fbe0013
:1006380041098000f07f2e0000806000400988009a
:100648004109800000302000010070004009880046
:1006580041098000f0f32f00008060004009880005
:1006680028a1a9002881a9002841a900002020006c
:100678009009880031e1a90031c1a8003181a800a2
:100688003141a8003121a80031a1a8003101a900f9
:1006980081098000f0f92f00008060000060a00050
:1006a80080098800a1098000f0ff23000080600015
:1006b800a0098800a1098000000c2000010070003a
:1006c800a0098800a1098000c00320000100700073
:1006d800a0098800a00980003000b300a0098800a4
:1006e8002a61ef0010002000700988002de1a800a1
:1006f8002dc1a8002d81a8002da1a80061098000a6
:100708000060200001007000600988002d01a80029
:1007180029e1a80000e224005c01070000e22400af
:100728005a010700820320000c0028004d00200019
:10073800a00180008d0178008c007800a30188005a
:1007480082087800a0018800802025004f0107005a
:10075800c20020000a0028004b002000a0018000f1
:100768008b0178008a007800a3018800820878004d
:10077800a0018800803e200044010700620020009c
:100788000800280049002000a001800089017800a5
:1007980088007800a301880082087800a0018800fa
:1007a80080bb2000390107007200070010c0b300a9
:1007b8004f06be004f05be004f04be000080fa0081
:1007c800000006000400fa00000f780011079800e6
:1007d8000a0037001e007800104078000000fb0077
:1007e8000000e000110032001e0078001040780080
:1007f8001e0fe80010000700000000001e00900017
:1008080000f0a7000000ea000000ea004f00de0048
:10081800004078009e0090008100e90011079800d0
:100828000004e000ebff3a00010037000000000080
:100838000080fa00000006000200fa00889fbe004f
:100848008a9fbe00004f78001e00fb00ea0f500090
:1008580007003200ed0f500003003200e80f50008f
:100868000a0032000e0037005f0007003d00370025
:1008780004c8bf000004e00002003a00f8000700c6
:1008880038003700eb000700360037007500070016
:1008980000c2b300e8ff070072000700310037000c
:1008a8001e02fb002200280043002000a001800057
:1008b8008302780082007800a50188008408780007
:1008c800a0018800803e2000f000070005c8bf0096
:1008d8000040e80005e8b70005c8bf00f04f500029
:1008e8001f003a000568ef0004c8bf000004e000dc
:1008f8000e003a00020c20000a0028004b002000dd
:10090800a00180008b0178008a007800a30188008c
:1009180082087800a001880080bb2000db00070067
:1009280010c0b30004e8b7000e003700020820002a
:100938000800280049002000a001800089017800f3
:1009480088007800a301880082087800a001880048
:1009580080bb2000cd0007000468ef0001003700cd
:10096800000000004f05be004f04be000080fa00e2
:10097800000006000000fa00889fbe001300200057
:100988000000280041002000a20180000102780038
:1009980000007800a401880003087800a2018800fc
:1009a80080bb2000b90007002200200008002800b2
:1009b80049002000a00180008901780088007800a3
:1009c800a301880082087800a001880080bb20006d
:1009d800ae0007000468ef000568ef004f04be0092
:1009e8000080fa00000006000000fa0044802000a1
:1009f800144278000404e0000c003a0004082000c7
:100a08000200280043002000a00180008302780033
:100a180082007800a501880084087800a001880079
:100a280080bb2000990007000b003700030c200052
:100a38000000280041002000a20180000102780087
:100a480000007800a401880003087800a20188004b
:100a580080bb20008d0007000568ef000080fa00c9
:100a6800000006000200fa005680200016437800b5
:100a78000604e00026003a0004c8bf000004e000b5
:100a88000e003a00020c2000040028004500200057
:100a9800a00180008501780084007800a301880007
:100aa80082087800a001880080bb2000770007003a
:100ab80010c0b30004e8b7000c0037000408200099
:100ac8000200280043002000a00180008302780073
:100ad80082007800a501880084087800a0018800b9
:100ae80080bb2000690007000468ef000040eb00ad
:100af800004f780002003700180007001e4fe8007a
:100b08001e407800ee4f5000fbff36001100370002
:100b180052802000124178000241e90082417800a9
:100b2800518020008348780003012000000028003d
:100b380041002000a2018000010278000000780036
:100b4800a401880003087800a2018800803e2000e4
:100b58004e0007000080fa00000006000000fa00be
:100b6800889fbe008a9fbe00430120000000280025
:100b780041002000a20180000102780000007800f6
:100b8800a401880003087800a2018800803e2000a4
:100b98003e00070005c8bf000040e80005e8b700b0
:100ba80005c8bf00f04f50001e003a000568ef006e
:100bb80004c8bf000004e0000e003a00020c200048
:100bc8000a0028004b002000a00180008b0178005b
:100bd8008a007800a301880082087800a0018800b4
:100be80080bb20002900070010c0b30004e8b7004c
:100bf8000c003700020820000800280049002000e7
:100c0800a00180008901780088007800a30188008d
:100c180082087800a001880080bb20001b00070024
:100c28000468ef004f05be004f04be000080fa00c4
:100c3800000006000200fa000040eb00004f7800b8
:100c48000200370087ff07001e4fe8001e407800ab
:100c5800ef4f5000fbff36000080fa00000006004e
:100c68000200fa000040eb00004f78000200370055
:100c7800baff07001e4fe8001e407800ef4f5000f3
:100c8800fbff36000080fa00000006000200fa00b0
:100c9800000f7800010037001e0fe9001e007800e1
:100ca8000000e000fcff3a000080fa0000000600a7
:100cb8000200fa00004f78001e4078000004e000af
:100cc8000c003200f200200004002800450020003b
:100cd800a00180008501780084007800a3018800c5
:100ce80082087800a001880080bb2000e7ff070089
:100cf8000b003700c4002000020028004300200039
:100d0800a00180008302780082007800a501880095
:100d180084087800a001880080bb2000dbff070062
:100d28000080fa00000006000200fa00000f7800b8
:100d38001e007800e40f50001a003200e40f500043
:100d480009003e00e10f500010003200e10f500092
:100d58001e003900e20f50000e003200e30f500071
:100d68000e0032001a003700e60f50001100320062
:100d7800e60f50000d003900e70f50000f00320059
:100d8800e80f50000f003200110037008541a8001d
:100d98000f00370084e1a8000d0037008e61a8001d
:100da8000b0037008e41a800090037008521a800f4
:100db800070037008501a8000500370098a1a800a2
:100dc8000300370098c1a8000100370000000000a8
:100dd8000080fa00000006000200fa00000f780008
:100de8001e007800e40f50001a003200e40f500093
:100df80009003e00e10f500010003200e10f5000e2
:100e08001e003900e20f50000e003200e30f5000c0
:100e18000e0032001a003700e60f500011003200b1
:100e2800e60f50000d003900e70f50000f003200a8
:100e3800e80f50000f003200110037008541a9006b
:100e48000f00370084e1a9000d0037008e61a9006a
:100e58000b0037008e41a900090037008521a90041
:100e6800070037008501a9000500370098a1a900ef
:100e78000300370098c1a9000100370000000000f6
:100e88000080fa00000006000200fa00000f780057
:100e98001e007800e40f50003b003200e40f5000c1
:100ea80009003e00e10f500010003200e10f500031
:100eb80076003900e20f500019003200e30f5000ad
:100ec8002400320072003700e60f5000480032005c
:100ed800e60f500039003900e70f5000510032008a
:100ee800e80f50005c00320069003700200c8000d9
:100ef8004a00de00614060000004a200614060001a
:100f08000080fb00610060004a00dd00210c8000c9
:100f180001a0a10001007000200c88005c003700cf
:100f2800200c80004700de00614060000004a20041
:100f3800614060000080fb00610060004700dd0048
:100f4800210c80000170a10001007000200c8800b5
:100f58004f003700700c80004300de0061406000e5
:100f68000004a200614060000080fb006100600096
:100f78004300dd00710c80000130a1000100700009
:100f8800700c880042003700700c80004200de00c0
:100f9800614060000004a200614060000080fb0026
:100fa800610060004200dd00710c80000120a1009a
:100fb80001007000700c880035003700200c80009c
:100fc8004900de00614060000004a200614060004a
:100fd8000080fb00610060004900dd00210c8000fa
:100fe8000190a10001007000200c88002800370043
:100ff800200c80004800de00614060000004a20070
:10100800614060000080fb00610060004800dd0076
:10101800210c80000180a10001007000200c8800d4
:101028001b003700c00c80004500de0061406000f6
:101038000004a200614060000080fb0061006000c5
:101048004500dd00c10c80000150a10001007000c6
:10105800c00c88000e003700c00c80004600de007f
:10106800614060000004a200614060000080fb0055
:10107800610060004600dd00c10c80000160a10035
:1010880001007000c00c880001003700000000005b
:101098000080fa00000006000200fa00000f780045
:1010a8001e007800e40f50002e003200e40f5000bc
:1010b80009003e00e10f500010003200e10f50001f
:1010c80054003900e20f500015003200e30f5000c1
:1010d8001c00320051003700e60f50003200320089
:1010e800e60f500027003900e70f500037003200a4
:1010f800e80f50003e00320048003700210c800005
:10110800004020000080600000f0a7000000ea0016
:101118000000ea004f00de00004078004000370081
:10112800210c8000000820000080600000f0a7006b
:101138000000ea000000ea004f00de0000407800ee
:1011480037003700700c80006800600000f0a700ce
:101158000000ea000000ea004f00de0000407800ce
:101168002f003700700c80006400600000f0a700ba
:101178000000ea000000ea004f00de0000407800ae
:1011880027003700210c800000202000008060002c
:1011980000f0a7000000ea000000ea004f00de00af
:1011a800004078001e003700210c8000001020004d
:1011b8000080600000f0a7000000ea000000ea00dc
:1011c8004f00de000040780015003700c10c800099
:1011d800000220000080600000f0a7000000ea0084
:1011e8000000ea004f00de00004078000c003700e5
:1011f800c10c8000000420000080600000f0a700ff
:101208000000ea000000ea004f00de00004078001d
:10121800030037000040eb00010037000040eb00fe
:101228000080fa00000006000200fa00000f7800b3
:101238001e007800e40f50001a003200e40f50003e
:1012480009003e00e10f500010003200e10f50008d
:101258001e003900e20f50000e003200e30f50006c
:101268000e0032001a003700e60f5000110032005d
:10127800e60f50000d003900e70f50000f00320054
:10128800e80f50000f003200110037008141a9001b
:101298000f00370080e1a9000d0037008a61a9001e
:1012a8000b0037008a41a900090037008121a900f5
:1012b800070037008101a9000500370094a1a900a3
:1012c8000300370094c1a9000100370000000000a6
:1012d8000080fa00000006000000fa00290107005b
:1012e800110120005081200036fd07001101200067
:1012f8007082200033fd070000000000100020006d
:10130800770307000004a2000004e000fbff3a0096
:10131800100020004e0207001000200026030700de
:10132800110120009083200026fd070011012000f4
:10133800b084200023fd07000300370000000000f0
:101348000100370000000000c08020001040780035
:101358000004e000f9ff32006080200010407800af
:10136800d700070032000700c08020008040eb0053
:101378000148780040812000104078000004e00017
:10138800f0ff3200904080005c00070000c2b3000c
:1013980029fd070000c2b30027fd070000c5b30000
:1013a80025fd0700f0c6b30023fd070040c7b300c2
:1013b80021fd070000c2b3001ffd0700d0c3b30022
:1013c8001dfd070000c2b3001bfd0700d0802000f0
:1013d8001040780018fd0700e0c2b30016fd0700b2
:1013e800e08020001040780013fd0700f080200006
:1013f8001040780010fd070000c2b3000efd070082
:1014080060c5b3000cfd070040c6b3000afd070025
:1014180030c6b30008fd070000c2b30006fd070090
:10142800408120008040eb0001487800c6ff37006b
:101438000000fa0040c5b300fffc070090c6b300e7
:10144800fdfc0700d0c6b300fbfc070050c6b30084
:10145800f9fc070000c2b300f7fc0700a0802000d9
:10146800104078000043b000f3fc0700b080200073
:10147800104078000043b000effc070070802000a7
:10148800104078008e000700a0c3b300eafc0700f4
:1014980000c2b300e8fc0700a080200010407800dc
:1014a8000043b000e4fc0700b08020001040780042
:1014b8000043b000e0fc0700808020001040780066
:1014c8007f000700a0c3b300dbfc070000c2b30025
:1014d800d9fc0700a0802000104078000043b0002d
:1014e800d5fc0700b0802000104078000043b00011
:1014f800d1fc07000080fa00000006000200fa0094
:10150800000f7800d08020008040eb000148780070
:10151800e08020008040eb0001487800f080200047
:101528008040eb0001487800008120008040eb00fb
:101538000148780045003700501320009e007800cd
:10154800808f500008003600d080200010407800be
:101558008040e800d080200001487800a1ec2f00ee
:101568001e8f4000390037001e007800fe0f500023
:1015780015003600e080200010407800e84f500049
:1015880006003e00e0802000104078008040e8001f
:10159800e08020000148780008003700d080200053
:1015a800104078008040e800d08020000148780092
:1015b800e08020008040eb00014878001e017800a0
:1015c8007f0f5100210037001e007800e20f500005
:1015d80015003600f080200010407800e84f5000d9
:1015e80006003e00f0802000104078008040e800af
:1015f800f08020000148780008003700e0802000d3
:10160800104078008040e800e08020000148780021
:10161800f08020008040eb00014878009e007800b0
:10162800638f5000090037001e007800e20f500059
:1016380006003e0000812000104078008040e8004d
:1016480000812000014878001e0fe9001e00780084
:101658000000e000b8ff3a00d08020001040780079
:1016680002c3b30082404000d080200001487800c7
:10167800e08020001040780002c3b30082404000a0
:10168800e080200001487800f080200010407800b9
:1016980002c3b30082404000f08020000148780077
:1016a800008120001040780002c3b300824040004f
:1016b80000812000014878000080fa000000060040
:1016c8000200fa00004f7800908020008040eb0074
:1016d80001487800a08020008040eb000148780095
:1016e800b08020008040eb00014878001e003700e1
:1016f80070ccb3009e40780080cf500005003600c3
:1017080081c3b3001ecf40009080200021c0b300e9
:101718000148780030c6b3009e40780080cf500062
:1017280007003600c0c9b3001e4f4000908020005b
:10173800104078008040e800908020000148780040
:101748001e407800e94f5000070036009e407800a0
:101758006acf5000a0802000104078008040e80048
:10176800a0802000014878001e407800e94f500012
:10177800dfff3e00b08020001e4878000080fa009d
:10178800000006000000fa0070002000a6fe070016
:1017980080002000a4fe07007000200062fd070002
:1017a8008000200060fd070010002000860207006e
:1017b800b0002000f001070000e8b70098fb070020
:1017c800020007000080fa00000006000600fa0088
:1017d80020c0b300004f780060c4b30010479800e1
:1017e80070c5b3002047980000102000200798001b
:1017f8002e0090009e4090002e4190009e4178005f
:101808000148780002487800034878000080fa0010
:10181800000006003600f800809fbe00829fbe00d0
:10182800849fbe00869fbe003200f8003400f80096
:1018380010002000a00188001000200090018800fe
:101848000000fa0010408000017d2000810068003f
:1018580001f0a7008100ea008100e900cf08de005e
:10186800814078000000e800104088000104e00092
:10187800030032007000200083fd07000228ef00fb
:1018880000108000904088004081200011c0b30003
:101898000148780085a0a9000080fa003400f9000a
:1018a8003200f9004f03be004f02be004f01be00d8
:1018b8004f00be003600f900004006003600f80070
:1018c800809fbe00829fbe00849fbe00869fbe0090
:1018d8003200f8003400f80010002000a001880051
:1018e80010002000900188000000fa00808020008d
:1018f80090407800a0c3b30080cf500006003e009f
:1019080080802000104078008040e800808020001f
:10191800014878001e003700808020008040eb00de
:10192800014878007080200090407800a0c3b30080
:1019380080cf500006003e007080200010407800e4
:101948008040e800708020000148780010003700cf
:10195800708020008040eb00014878006080200003
:1019680010407800f64f500006003e0060802000ce
:10197800104078008040e80060802000014878002e
:1019880003003700608020008040eb0001487800a9
:10199800c080200011c0b3000148780080002000fa
:1019a80039fd07008460a9000080fa003400f900be
:1019b8003200f9004f03be004f02be004f01be00c7
:1019c8004f00be003600f900004006003200f80063
:1019d8003400f800881f780018002000a80188004b
:1019e80018002000980188004f0478000000fa00d1
:1019f8008020a900ffff37003200f8003400f8000b
:101a0800881f780018002000a8018800180020000e
:101a1800980188004f0478000000fa008060a9004f
:101a2800ffff37003200f8003400f800881f780004
:101a380018002000a80188001800200098018800dc
:101a48004f0478000000fa008040a900ffff37002b
:101a58003200f8003400f800881f780018002000d1
:101a6800a801880018002000980188004f04780019
:101a78000000fa008080a900ffff37003200f8005c
:101a88003400f800881f780018002000a80188009a
:101a980018002000980188004f0478000000fa0020
:101aa8008020a900ffff37003200f8003400f8005a
:101ab800881f780018002000a8018800180020005e
:101ac800980188004f0478000000fa008060a9009f
:101ad800ffff37003200f8003400f800881f780054
:101ae80018002000a801880018002000980188002c
:101af8004f0478000000fa008040a900ffff37007b
:101b08003200f8003400f800881f78001800200020
:101b1800a801880018002000980188004f04780068
:101b28000000fa008080a900ffff37000400fa00d7
:101b3800100798000040eb00004f780011003700b4
:101b48001e80fb006a00b90080007800e085200054
:101b580000804000900078001e009000808f5000a8
:101b680007003a001e80fb006a00b9008000780078
:101b7800e0852000008040008000eb00010878002c
:101b88001e4fe8001e4078000004e000ecff320021
:101b98000080fa00000006000800fa00100798000c
:101ba80022079800330798000040eb00004f7800a8
:101bb800210037001e80fb006a00b9008000780011
:101bc800e085200000804000100078000000e00060
:101bd80018003a001e80fb006a00b90080007800f7
:101be800e0852000008040009e00900001087800f9
:101bf8001e80fb006a00b900800078000086200083
:101c0800008040002e019000be0190000288be00b6
:101c18001e80fb006a00b900800078004086200022
:101c2800008140006000b8000089be0010c0b30009
:101c3800050037001e4fe8001e4078000004e00051
:101c4800dcff32000040eb000080fa0000000600d4
:101c58000200fa00000f78001e007800e10f500023
:101c680017003200e10f500003003900e20f500066
:101c78002500320027003700a20020008000eb007a
:101c8800e08520005ffa07004105800080ff2f00f3
:101c9800008060000000a000400588008500a900c1
:101ca8005622ef00007d2000d012880000012a0093
:101cb800f01288009500a80010c0b3001600370085
:101cc800a20020008000eb00e08520004dfa07000c
:101cd80021058000f0ff28000080600000e0a000df
:101ce800200588008460a9004c22ef00000028002d
:101cf8007012880020002800801288009460a800d4
:101d080010c0b300040037009500a90010c0b3004c
:101d1800010037000040eb000080fa0000000600d8
:101d28003600f800809fbe00829fbe00849fbe00e0
:101d3800869fbe003200f8003400f8001000200032
:101d4800a001880010002000900188000200fa001d
:101d58000040eb00004f7800360037001e80fb0083
:101d68006a00b90080007800e0852000008040000b
:101d7800100078000000e0002d0032001e81fb00fa
:101d88006a10b90000007800e6004000e0852000f5
:101d9800008040001000be0061004000e080480064
:101da8006a11b90082017800428620000281410050
:101db8000089be001e80fb006a00b90000007800a0
:101dc800e6004000e0852000008040001001be00d1
:101dd8001e80fb006a00b900000078008080e800df
:101de800e0852000008040001000be00800f5100f8
:101df800818f59000e003a001e80fb006a00b9006e
:101e080080007800e0852000008040001000780005
:101e1800000001001e80fb006a00b9008000780005
:101e280040862000008140006000b8000089be00a4
:101e38001e4fe8001e4078000004e000c7ff320093
:101e48008500a9000080fa003400f9003200f9008a
:101e58004f03be004f02be004f01be004f00be0040
:101e68003600f900004006000400fa001007980048
:101e78001e009000ea0f500004003200eb0f5000e3
:101e88000400320000c0eb00110037000000000021
:101e980001003700000000001e0090000e0007003f
:101ea800a100200001017800110009000280d8007b
:101eb800004f780040c6b3009e40780080cf5000a5
:101ec8000200360040c6b300004f78001e4078007c
:101ed8000080fa00000006000400fa0010079800cd
:101ee8001e009000ea0f500004003200eb0f500073
:101ef800040032000080eb001d00370000000000e5
:101f080001003700000000009e0090004111880089
:101f18002022a8000000eb00000f78000100370025
:101f28001e0fe800703e20009e007800808f500051
:101f3800fbff36002022a9000000eb00000f78000c
:101f4800010037001e0fe800703e20009e00780058
:101f5800808f5000fbff3600000000000011800059
:101f6800610060000000e000fcff3200001080000b
:101f78000080fa00000006000200fa00000f780056
:101f88001e007800ea0f500005003200eb0f5000e9
:101f980006003a009c21a80010c0b30004003700d6
:101fa8009c01a80010c0b300010037000040eb00fe
:101fb8000080fa00000006000200fa00000f780016
:101fc8001e0078000000e0001c003a00111180009b
:101fd800f0ff2300008060001011880023a2a900f0
:101fe80000c0eb0024e2b70001118000f0f02f00e0
:101ff800008060000011880021118000f00f2e0081
:102008000080600000c0a00020118800011180003d
:10201800f0cf2f00008060000011880011118000af
:1020280030f82f0000806000101188002142a900bc
:1020380021e2a80010c0b300270037001e00780076
:10204800e10f500023003a0001118000f0f02f004a
:1020580080806000000720000100700000118800e7
:102068002042a80011118000f0ff230000806000ca
:102078001011880023a2a9001111800030f82f0048
:1020880000806000101188002342a9002202a900e4
:10209800f0c2b30024e2b70021118000f00f2e0037
:1020a800808060000030200001007000201188004e
:1020b80095a0a8002142a90021e2a800b0002000b4
:1020c8004011880085a0a9002c22ef0010c0b300a1
:1020d800010037000040eb000080fa000000060015
:1020e8000200fa00000f78001e007800e20f50008e
:1020f80015003200e20f500005003e000000e0002d
:102108002c003200e10f5000060032002b0037008f
:10211800e30f500015003200e40f50001c0032009d
:1021280026003700110c800000402000008060006d
:1021380000f0a7000000ea000000e9004f00de0000
:10214800004078001e003700110c8000002020009d
:102158000080600000f0a7000000ea000000e9002d
:102168004f00de000040780015003700b10c8000f9
:10217800000420000080600000f0a7000000ea00d2
:102188000000e9004f00de00004078000c00370036
:10219800110c8000000820000080600000f0a700fb
:1021a8000000ea000000e9004f00de00004078006f
:1021b800030037000040eb00010037000040eb004f
:1021c8000080fa00000006000200fa00000f780004
:1021d8001e007800e20f50000e003200e20f50009f
:1021e80005003e000000e00010003200e10f500042
:1021f800060032000e003700e30f500007003200df
:10220800e40f500007003200090037008141a800a0
:10221800070037008121a8000500370094c1a800f5
:102228000300370080e1a80001003700000000002b
:082238000080fa00000006001e
:020000040000fa
:102240000408000002000000800000005e0800009a
:102250000a000000800000000008000004000000e8
:102260008000000006080000580000008200000006
:10227000000000000000000000000000000000005e
:1022800000000000457870006c6f720065722000dd
:102290003136200044656d006f000000507265000b
:1022a0007373200053332000746f2000636f6e003f
:1022b0007400000054696d0065203000303a200041
:1022c00030303a00203030002000000020506f00f5
:1022d00074203d0020302e00303020005664630012
:0c22e000200000000000000000000000d2
:020000040000fa
:020000040002f8
:04aff0003fff00001f
:020000040000fa
:020000040002f8
:04aff400ffff00005b
:020000040000fa
:020000040002f8
:04aff800bf30000066
:020000040000fa
:020000040002f8
:04affc003f3f0000d3
:00000001FF
