:020000040000fa
:080000000002040000000000f2
:020000040000fa
:04000800ac03000045
:020000040000fa
:04000c00ac03000041
:020000040000fa
:04001000ac0300003d
:020000040000fa
:04001400ac03000039
:020000040000fa
:04001800ac03000035
:020000040000fa
:04001c00ac03000031
:020000040000fa
:04002000ac0300002d
:020000040000fa
:04002400ac03000029
:020000040000fa
:04002800ac03000025
:020000040000fa
:04002c00ac03000021
:020000040000fa
:04003000ac0300001d
:020000040000fa
:04003400ac03000019
:020000040000fa
:04003800ac03000015
:020000040000fa
:04003c00ac03000011
:020000040000fa
:04004000ac0300000d
:020000040000fa
:04004400ac03000009
:020000040000fa
:0400480008030000a9
:020000040000fa
:04004c00ac03000001
:020000040000fa
:04005000ac030000fd
:020000040000fa
:04005400ac030000f9
:020000040000fa
:04005800ac030000f5
:020000040000fa
:04005c00ac030000f1
:020000040000fa
:04006000ac030000ed
:020000040000fa
:04006400ac030000e9
:020000040000fa
:04006800ac030000e5
:020000040000fa
:04006c00ac030000e1
:020000040000fa
:04007000ac030000dd
:020000040000fa
:04007400ac030000d9
:020000040000fa
:04007800ac030000d5
:020000040000fa
:04007c00ac030000d1
:020000040000fa
:04008000ac030000cd
:020000040000fa
:04008400ac030000c9
:020000040000fa
:04008800ac030000c5
:020000040000fa
:04008c00ac030000c1
:020000040000fa
:04009000ac030000bd
:020000040000fa
:04009400ac030000b9
:020000040000fa
:04009800ac030000b5
:020000040000fa
:04009c00ac030000b1
:020000040000fa
:0400a000ac030000ad
:020000040000fa
:0400a400ac030000a9
:020000040000fa
:0400a800ac030000a5
:020000040000fa
:0400ac00ac030000a1
:020000040000fa
:0400b000ac0300009d
:020000040000fa
:0400b400ac03000099
:020000040000fa
:0400b800ac03000095
:020000040000fa
:0400bc00ac03000091
:020000040000fa
:0400c000ac0300008d
:020000040000fa
:0400c400ac03000089
:020000040000fa
:0400c800ac03000085
:020000040000fa
:0400cc00ac03000081
:020000040000fa
:0400d000ac0300007d
:020000040000fa
:0400d400ac03000079
:020000040000fa
:0400d800ac03000075
:020000040000fa
:0400dc00ac03000071
:020000040000fa
:0400e000ac0300006d
:020000040000fa
:0400e400ac03000069
:020000040000fa
:0400e800ac03000065
:020000040000fa
:0400ec00ac03000061
:020000040000fa
:0400f000ac0300005d
:020000040000fa
:0400f400ac03000059
:020000040000fa
:0400f800ac03000055
:020000040000fa
:0400fc00ac03000051
:020000040000fa
:04010000ac0300004c
:020000040000fa
:04010400ac03000048
:020000040000fa
:04010800ac03000044
:020000040000fa
:04010c00ac03000040
:020000040000fa
:04011000ac0300003c
:020000040000fa
:04011400ac03000038
:020000040000fa
:04011800ac03000034
:020000040000fa
:04011c00ac03000030
:020000040000fa
:04012000ac0300002c
:020000040000fa
:04012400ac03000028
:020000040000fa
:04012800ac03000024
:020000040000fa
:04012c00ac03000020
:020000040000fa
:04013000ac0300001c
:020000040000fa
:04013400ac03000018
:020000040000fa
:04013800ac03000014
:020000040000fa
:04013c00ac03000010
:020000040000fa
:04014000ac0300000c
:020000040000fa
:04014400ac03000008
:020000040000fa
:04014800ac03000004
:020000040000fa
:04014c00ac03000000
:020000040000fa
:04015000ac030000fc
:020000040000fa
:04015400ac030000f8
:020000040000fa
:04015800ac030000f4
:020000040000fa
:04015c00ac030000f0
:020000040000fa
:04016000ac030000ec
:020000040000fa
:04016400ac030000e8
:020000040000fa
:04016800ac030000e4
:020000040000fa
:04016c00ac030000e0
:020000040000fa
:04017000ac030000dc
:020000040000fa
:04017400ac030000d8
:020000040000fa
:04017800ac030000d4
:020000040000fa
:04017c00ac030000d0
:020000040000fa
:04018000ac030000cc
:020000040000fa
:04018400ac030000c8
:020000040000fa
:04018800ac030000c4
:020000040000fa
:04018c00ac030000c0
:020000040000fa
:04019000ac030000bc
:020000040000fa
:04019400ac030000b8
:020000040000fa
:04019800ac030000b4
:020000040000fa
:04019c00ac030000b0
:020000040000fa
:0401a000ac030000ac
:020000040000fa
:0401a400ac030000a8
:020000040000fa
:0401a800ac030000a4
:020000040000fa
:0401ac00ac030000a0
:020000040000fa
:0401b000ac0300009c
:020000040000fa
:0401b400ac03000098
:020000040000fa
:0401b800ac03000094
:020000040000fa
:0401bc00ac03000090
:020000040000fa
:0401c000ac0300008c
:020000040000fa
:0401c400ac03000088
:020000040000fa
:0401c800ac03000084
:020000040000fa
:0401cc00ac03000080
:020000040000fa
:0401d000ac0300007c
:020000040000fa
:0401d400ac03000078
:020000040000fa
:0401d800ac03000074
:020000040000fa
:0401dc00ac03000070
:020000040000fa
:0401e000ac0300006c
:020000040000fa
:0401e400ac03000068
:020000040000fa
:0401e800ac03000064
:020000040000fa
:0401ec00ac03000060
:020000040000fa
:0401f000ac0300005c
:020000040000fa
:0401f400ac03000058
:020000040000fa
:0401f800ac03000054
:020000040000fa
:0401fc00ac03000050
:020000040000fa
:04020800ac03000043
:020000040000fa
:04020c00ac0300003f
:020000040000fa
:04021000ac0300003b
:020000040000fa
:04021400ac03000037
:020000040000fa
:04021800ac03000033
:020000040000fa
:04021c00ac0300002f
:020000040000fa
:04022000ac0300002b
:020000040000fa
:04022400ac03000027
:020000040000fa
:04022800ac03000023
:020000040000fa
:04022c00ac0300001f
:020000040000fa
:04023000ac0300001b
:020000040000fa
:04023400ac03000017
:020000040000fa
:04023800ac03000013
:020000040000fa
:04023c00ac0300000f
:020000040000fa
:04024000ac0300000b
:020000040000fa
:04024400ac03000007
:020000040000fa
:04024800ac03000003
:020000040000fa
:04024c00ac030000ff
:020000040000fa
:04025000ac030000fb
:020000040000fa
:04025400ac030000f7
:020000040000fa
:04025800ac030000f3
:020000040000fa
:04025c00ac030000ef
:020000040000fa
:04026000ac030000eb
:020000040000fa
:04026400ac030000e7
:020000040000fa
:04026800ac030000e3
:020000040000fa
:04026c00ac030000df
:020000040000fa
:04027000ac030000db
:020000040000fa
:04027400ac030000d7
:020000040000fa
:04027800ac030000d3
:020000040000fa
:04027c00ac030000cf
:020000040000fa
:04028000ac030000cb
:020000040000fa
:04028400ac030000c7
:020000040000fa
:04028800ac030000c3
:020000040000fa
:04028c00ac030000bf
:020000040000fa
:04029000ac030000bb
:020000040000fa
:04029400ac030000b7
:020000040000fa
:04029800ac030000b3
:020000040000fa
:04029c00ac030000af
:020000040000fa
:0402a000ac030000ab
:020000040000fa
:0402a400ac030000a7
:020000040000fa
:0402a800ac030000a3
:020000040000fa
:0402ac00ac0300009f
:020000040000fa
:0402b000ac0300009b
:020000040000fa
:0402b400ac03000097
:020000040000fa
:0402b800ac03000093
:020000040000fa
:0402bc00ac0300008f
:020000040000fa
:0402c000ac0300008b
:020000040000fa
:0402c400ac03000087
:020000040000fa
:0402c800ac03000083
:020000040000fa
:0402cc00ac0300007f
:020000040000fa
:0402d000ac0300007b
:020000040000fa
:0402d400ac03000077
:020000040000fa
:0402d800ac03000073
:020000040000fa
:0402dc00ac0300006f
:020000040000fa
:0402e000ac0300006b
:020000040000fa
:0402e400ac03000067
:020000040000fa
:0402e800ac03000063
:020000040000fa
:0402ec00ac0300005f
:020000040000fa
:0402f000ac0300005b
:020000040000fa
:0402f400ac03000057
:020000040000fa
:0402f800ac03000053
:020000040000fa
:0402fc00ac0300004f
:020000040000fa
:04030000ac0300004a
:020000040000fa
:04030400ac03000046
:020000040000fa
:04030800ac03000042
:020000040000fa
:04030c00ac0300003e
:020000040000fa
:04031000ac0300003a
:020000040000fa
:04031400ac03000036
:020000040000fa
:04031800ac03000032
:020000040000fa
:04031c00ac0300002e
:020000040000fa
:04032000ac0300002a
:020000040000fa
:04032400ac03000026
:020000040000fa
:04032800ac03000022
:020000040000fa
:04032c00ac0300001e
:020000040000fa
:04033000ac0300001a
:020000040000fa
:04033400ac03000016
:020000040000fa
:04033800ac03000012
:020000040000fa
:04033c00ac0300000e
:020000040000fa
:04034000ac0300000a
:020000040000fa
:04034400ac03000006
:020000040000fa
:04034800ac03000002
:020000040000fa
:04034c00ac030000fe
:020000040000fa
:04035000ac030000fa
:020000040000fa
:04035400ac030000f6
:020000040000fa
:04035800ac030000f2
:020000040000fa
:04035c00ac030000ee
:020000040000fa
:04036000ac030000ea
:020000040000fa
:04036400ac030000e6
:020000040000fa
:04036800ac030000e2
:020000040000fa
:04036c00ac030000de
:020000040000fa
:04037000ac030000da
:020000040000fa
:04037400ac030000d6
:020000040000fa
:04037800ac030000d2
:020000040000fa
:04037c00ac030000ce
:020000040000fa
:04038000ac030000ca
:020000040000fa
:04038400ac030000c6
:020000040000fa
:04038800ac030000c2
:020000040000fa
:04038c00ac030000be
:020000040000fa
:04039000ac030000ba
:020000040000fa
:04039400ac030000b6
:020000040000fa
:04039800ac030000b2
:020000040000fa
:04039c00ac030000ae
:020000040000fa
:0403a000ac030000aa
:020000040000fa
:0403a400ac030000a6
:020000040000fa
:0403a800ac030000a2
:020000040000fa
:0403ac00ac0300009e
:020000040000fa
:0403b000ac0300009a
:020000040000fa
:0403b400ac03000096
:020000040000fa
:0403b800ac03000092
:020000040000fa
:0403bc00ac0300008e
:020000040000fa
:0403c000ac0300008a
:020000040000fa
:0403c400ac03000086
:020000040000fa
:0403c800ac03000082
:020000040000fa
:0403cc00ac0300007e
:020000040000fa
:0403d000ac0300007a
:020000040000fa
:0403d400ac03000076
:020000040000fa
:0403d800ac03000072
:020000040000fa
:0403dc00ac0300006e
:020000040000fa
:0403e000ac0300006a
:020000040000fa
:0403e400ac03000066
:020000040000fa
:0403e800ac03000062
:020000040000fa
:0403ec00ac0300005e
:020000040000fa
:0403f000ac0300005a
:020000040000fa
:0403f400ac03000056
:020000040000fa
:0403f800ac03000052
:020000040000fa
:0403fc00ac0300004e
:020000040000fa
:100400000f8120000e7f22000e01880000000000f6
:10041000000020000000e000020032000001200087
:100420002002880014000700cd0007000000e00053
:1004300003003a00e086200001002000020037009f
:100440000000200001002000810f70000100320038
:1004500014000700000020000000e000020032004d
:100460000000020000000000f00402000000000094
:100470000040da000000fe004440a90020002000f7
:100480000000e0000300320010002000900188000e
:100490004440a800000006008a1f78008b1f7800e7
:1004a00000000600a1028800800478000000eb0034
:1004b0001f003700e284440054a0b4009905ba003c
:1004c000e284440054a0b4009906ba00e2844400d7
:1004d00054a0b4000006eb00476fde00fd07b20039
:1004e000ae018800636ce10003003a00eaff0700f8
:1004f0000000eb000e003700606ce10008003a00dd
:10050000004deb000a05e800020039003420ec0041
:100510000af0a0008b05e900f9ff3e000400370057
:100520006168e100010032000086eb000b0007006b
:1005300019c7ba001905ba000e04e00003003a001a
:100540000a00e000dbff3a0000000600fe07b200f0
:10055000ae0288008a047800f5ff37000cd0a300b3
:10056000e20f4d001c00390089027800354dba00b9
:100570000a05e800020039003420ec000af0a0006f
:100580008b05e9000f003200254dba000a05e8008e
:10059000020039003420ec000af0a0008b05e900cd
:1005a000080032000c00e0000600320015cdba0051
:1005b0000a05e800020039003420ec000af0a0002f
:1005c0008b05e9008984e80054a0b4000b00e0002a
:1005d000e2ff3a00000006009902ba00055d7800cb
:1005e0008b05e900f7ff3200c82ade00055d7800c0
:1005f0008b05e900f3ff32000c00e000f1ff320050
:1006000019ddba00eeff37002006040000000000ec
:100610003600f800809fbe00829fbe00849fbe000f
:10062000869fbe003200f8003400f8001000200061
:10063000a001880010002000900188000200fa004c
:100640000040eb00004f7800360037001e80fb00b2
:100650006a00b900800078006080200000804000bf
:10066000100078000000e0002d0032001e81fb0029
:100670006a10b90000007800e600400060802000a9
:10068000008040001000be0061004000e080480093
:100690006a11b90082017800c28020000281410005
:1006a0000089be001e80fb006a00b90000007800cf
:1006b000e600400060802000008040001001be0085
:1006c0001e80fb006a00b900000078008080e8000e
:1006d00060802000008040001000be00800f5100ac
:1006e000818f59000e003a001e80fb006a00b9009d
:1006f00080007800608020000080400010007800ba
:10070000000001001e80fb006a00b9008000780034
:10071000c0802000008140006000b8000089be0059
:100720001e4fe8001e4078000004e000c7ff3200c2
:100730008500a9000080fa003400f9003200f900b9
:100740004f03be004f02be004f01be004f00be006f
:100750003600f900004006000040da000000fe000c
:100760000000050080017800020037008159780000
:100770000201e9000200e000fcff3a000000060070
:020000040000fa
:100780000200fa00000f78001e007800e10f500010
:1007900046003a0094a1a90094c1a90094e1a900df
:1007a000511f8000f00f2c008080600000d02000de
:1007b00001007000501f8800611f800000fc2f00a6
:1007c00000806000e000b300601f8800611f8000af
:1007d000f00f2c008080600000f02000010070000d
:1007e000601f8800f03f2000901388008013800075
:1007f000f001b3008013880070e2a900711380003b
:1008000000c0210001007000701388007113800087
:1008100080ff2f00008060006000b300701388002c
:1008200070c2a800f03f2000e0138800d0138000c1
:10083000f001b300d01388007ae2a900c113800050
:1008400000c0210001007000c0138800c1138000a7
:1008500080ff2f00008060006000b300c01388009c
:100860007ac2a800f03f20003014880020148000d5
:10087000f001b3002014880084e2a9001114800064
:1008800000c02100010070001014880011148000c5
:1008900080ff2f00008060006000b300101488000b
:1008a00084c2a80000000000010037000000000022
:0808b0000080fa0000000600c0
:020000040000fa
:1008b8000200fa00000f78001e0078000000e00037
:1008c8001c003a0011118000f0ff23000080600036
:1008d8001011880023a2a90000c0eb0024e2b70091
:1008e80001118000f0f02f000080600000118800e6
:1008f80021118000f00f2e000080600000c0a000d1
:100908002011880001118000f0cf2f0000806000c6
:10091800001188001111800030f82f00008060005d
:10092800101188002142a90021e2a80010c0b300dc
:10093800270037001e007800e10f500023003a001e
:1009480001118000f0f02f00808060000007200077
:1009580001007000001188002042a80011118000d9
:10096800f0ff2300008060001011880023a2a90076
:100978001111800030f82f000080600010118800ed
:100988002342a9002202a900f0c2b30024e2b70062
:1009980021118000f00f2e008080600000302000c0
:1009a800010070002011880095a0a8002142a9002c
:1009b80021e2a800a00020004011880085a0a9001d
:1009c8002c22ef0010c0b300010037000040eb00fc
:0809d8000080fa000000060097
:020000040000fa
:1009e0000800fa0000202000000f7800001020000e
:1009f0001007980040062000200798000028ef000c
:100a00001000200074010700200020007201070080
:100a1000500020003b010700400020003901070082
:100a20001000200056ff07000000eb00a2ff0700a7
:100a3000a0002000890107000000eb001e00070055
:100a40001200200003002000006220004e0007007a
:100a5000a0002000a7000700300798000040800099
:100a6000e10f500008003200e10f50000300390090
:100a7000e20f50000700320009003700be0090006e
:100a8000010f780006003700be00900011079800a3
:100a900003003700be00900021079800000000000e
:100aa000ae0190001e0190009e0078001000200012
:080ab0005a010700e6ff3700c0
:020000040000fa
:100ab8000200fa00000f78001e007800e10f5000d5
:100ac80017003200e10f500003003900e20f500018
:100ad8002500320027003700a20020008000eb002c
:100ae800608020001dff07004105800080ff2f0067
:100af800008060000000a000400588008500a90073
:100b08005622ef00007d2000d012880000012a0044
:100b1800f01288009500a80010c0b3001600370036
:100b2800a20020008000eb00608020000bff07007f
:100b380021058000f0ff28000080600000e0a00090
:100b4800200588008460a9004c22ef0000002800de
:100b58007012880020002800801288009460a80085
:100b680010c0b300040037009500a90010c0b300fe
:100b7800010037000040eb000080fa00000006008a
:020000040000fa
:100b88000800fa0010079800220798003307980019
:100b98000040eb00004f7800210037001e80fb006a
:100ba8006a00b90080007800608020000080400062
:100bb800100078000000e00018003a001e80fb00da
:100bc8006a00b90080007800608020000080400042
:100bd8009e009000010878001e80fb006a00b900a2
:100be8008000780080802000008040002e01900066
:100bf800be0190000288be001e80fb006a00b9009a
:100c080080007800c0802000008140006000b800ab
:100c18000089be0010c0b300050037001e4fe80071
:100c28001e4078000004e000dcff32000040eb00ca
:080c38000080fa000000060034
:020000040000fa
:100c40000000fa00100020004d0007000004e00042
:100c500009003200500020006a00070010408000a8
:100c60000000e00001003a00c6000700400120003b
:100c70001040880008003700500020008100070065
:100c8000104080000000e0000300320010408000af
:100c90000000e90010408800200020003800070014
:100ca0000004e00009003200400020005500070069
:100cb000204080000000e00001003a00b100070081
:100cc000400120002040880008003700400020003c
:100cd0006c000700204080000000e00003003200ac
:100ce000204080000000e900204088000080fa00d9
:040cf00000000600fa
:020000040000fa
:100cf4000400fa00100798001e009000ea0f50004c
:100d040006003a009e009000411188002022a800ad
:100d14000000eb00000f7800030037000080eb00b8
:100d2400140037001e0fe800703e20009e0078007b
:100d3400808f5000fbff36002022a9000000eb004a
:100d4400000f7800010037001e0fe800703e2000fd
:100d54009e007800808f5000fbff360000000000ea
:100d640000118000610060000000e000fcff320020
:0c0d7400001080000080fa000000060063
:020000040000fa
:100d80000200fa00000f78001e007800e10f50000a
:100d900005003200e10f500015003900e20f50004d
:100da0000a00320014003700b10c8000002020003f
:100db0000080600000f0a7000000ea000000e900e9
:100dc0004f00de00004078000c003700b10c8000be
:100dd000001020000080600000f0a7000000ea0082
:100de0000000e9004f00de000040780003003700fb
:100df0000040eb00010037000040eb000080fa00eb
:040e000000000600e8
:020000040000fa
:100e04000200fa00000f78001e007800e20f500084
:100e140010003200e20f500005003e000000e00028
:100e240014003200e10f50000800320012003700b5
:100e3400e40f50000d003200e40f500007003900a9
:100e4400e50f5000070032000b00370098a1a800fe
:100e54000900370098c1a8000700370098e1a800ee
:100e6400050037008521a800030037008541a8004c
:100e740001003700000000000080fa0000000600b6
:020000040000fa
:100e84000200fa00000f78001e007800e20f500004
:100e940010003200e20f500005003e000000e000a8
:100ea40014003200e10f5000080032001200370035
:100eb400e40f50000d003200e40f50000700390029
:100ec400e50f5000070032000b00370098a1a9007d
:100ed4000900370098c1a9000700370098e1a9006c
:100ee400050037008521a900030037008541a900ca
:100ef40001003700000000000080fa000000060036
:020000040000fa
:100f04000200fa00000f78001e007800e20f500083
:100f140010003200e20f500005003e000000e00027
:100f240014003200e10f50000800320012003700b4
:100f3400e40f50000d003200e40f500007003900a8
:100f4400e50f5000070032000b00370094a1a90000
:100f54000900370094c1a9000700370094e1a900f3
:100f6400050037008121a900030037008141a90051
:100f740001003700000000000080fa0000000600b5
:020000040000fa
:100f84000000fa0000408000e10f50000800320029
:100f9400e10f500003003900e20f50000700320057
:100fa40008003700100020000040880007003700c8
:100fb4002000200000408800040037000028ef00d3
:100fc400020037000028ef00000000000080fa0053
:040fd4000000060013
:020000040000fa
:100fd8000200fa00000f78001e007800e10f5000b0
:100fe80005003200e10f500007003900e20f500001
:100ff80003003200050037009521a80003003700e0
:101008009501a80001003700000000000080fa00e8
:0410180000000600ce
:020000040000fa
:10101c000800fa00000f78001107980022079800ca
:10102c00330798009e0090001e0078001300070004
:10103c00ae0090001e00780017000700be00900064
:10104c001e0078001b0007000080fa00000006005c
:020000040000fa
:10105c000200fa00000f78001e007800ea0f500022
:10106c0003003a009c01a80010c0b3000100370037
:0c107c000040eb000080fa0000000600bd
:020000040000fa
:101088000400fa00000f7800110798009e009000f5
:0c109800a11388000080fa000000060090
:020000040000fa
:1010a4000400fa00000f7800110798009e009000d9
:0c10b400f11388000080fa000000060024
:020000040000fa
:1010c0000400fa00000f7800110798009e009000bd
:0c10d000411488000080fa0000000600b7
:020000040000fa
:1010dc000008000006000000800000000608000068
:0c10ec000a00000080000000000000006e
:020000040000fa
:020000040002f8
:04aff0003f720000ac
:020000040000fa
:020000040002f8
:04aff400fff7000063
:020000040000fa
:020000040002f8
:04aff8007f310000a5
:020000040000fa
:020000040002f8
:04affc003f3f0000d3
:00000001FF
